{
  "_format": "hh-sol-artifact-1",
  "contractName": "Escrow",
  "sourceName": "contracts/Escrow.sol",
  "abi": [
    {
      "inputs": [],
      "stateMutability": "nonpayable",
      "type": "constructor"
    },
    {
      "anonymous": false,
      "inputs": [
        {
          "indexed": true,
          "internalType": "address",
          "name": "sender",
          "type": "address"
        },
        {
          "indexed": false,
          "internalType": "uint256",
          "name": "amount",
          "type": "uint256"
        }
      ],
      "name": "FundsEscrowed",
      "type": "event"
    },
    {
      "anonymous": false,
      "inputs": [
        {
          "indexed": true,
          "internalType": "address",
          "name": "sender",
          "type": "address"
        },
        {
          "indexed": false,
          "internalType": "uint256",
          "name": "amount",
          "type": "uint256"
        }
      ],
      "name": "FundsReleased",
      "type": "event"
    },
    {
      "anonymous": false,
      "inputs": [
        {
          "indexed": true,
          "internalType": "address",
          "name": "sender",
          "type": "address"
        },
        {
          "indexed": false,
          "internalType": "uint256",
          "name": "amount",
          "type": "uint256"
        }
      ],
      "name": "FundsReturned",
      "type": "event"
    },
    {
      "inputs": [
        {
          "internalType": "address payable[]",
          "name": "_receivers",
          "type": "address[]"
        },
        {
          "internalType": "uint256[]",
          "name": "_amounts",
          "type": "uint256[]"
        }
      ],
      "name": "batchTransfer",
      "outputs": [],
      "stateMutability": "nonpayable",
      "type": "function"
    },
    {
      "inputs": [
        {
          "internalType": "address payable",
          "name": "_receiver",
          "type": "address"
        },
        {
          "internalType": "uint256",
          "name": "_releaseTime",
          "type": "uint256"
        }
      ],
      "name": "escrowFunds",
      "outputs": [],
      "stateMutability": "payable",
      "type": "function"
    },
    {
      "inputs": [
        {
          "internalType": "uint256",
          "name": "",
          "type": "uint256"
        }
      ],
      "name": "escrowList",
      "outputs": [
        {
          "internalType": "uint256",
          "name": "amount",
          "type": "uint256"
        },
        {
          "internalType": "uint256",
          "name": "releaseTime",
          "type": "uint256"
        },
        {
          "internalType": "address payable",
          "name": "sender",
          "type": "address"
        },
        {
          "internalType": "address payable",
          "name": "receiver",
          "type": "address"
        },
        {
          "internalType": "bool",
          "name": "returned",
          "type": "bool"
        },
        {
          "internalType": "bool",
          "name": "released",
          "type": "bool"
        }
      ],
      "stateMutability": "view",
      "type": "function"
    },
    {
      "inputs": [
        {
          "internalType": "address",
          "name": "",
          "type": "address"
        }
      ],
      "name": "escrows",
      "outputs": [
        {
          "internalType": "uint256",
          "name": "amount",
          "type": "uint256"
        },
        {
          "internalType": "uint256",
          "name": "releaseTime",
          "type": "uint256"
        },
        {
          "internalType": "address payable",
          "name": "sender",
          "type": "address"
        },
        {
          "internalType": "address payable",
          "name": "receiver",
          "type": "address"
        },
        {
          "internalType": "bool",
          "name": "returned",
          "type": "bool"
        },
        {
          "internalType": "bool",
          "name": "released",
          "type": "bool"
        }
      ],
      "stateMutability": "view",
      "type": "function"
    },
    {
      "inputs": [],
      "name": "getContractBalance",
      "outputs": [
        {
          "internalType": "uint256",
          "name": "",
          "type": "uint256"
        }
      ],
      "stateMutability": "view",
      "type": "function"
    },
    {
      "inputs": [],
      "name": "getEcrowList",
      "outputs": [
        {
          "components": [
            {
              "internalType": "uint256",
              "name": "amount",
              "type": "uint256"
            },
            {
              "internalType": "uint256",
              "name": "releaseTime",
              "type": "uint256"
            },
            {
              "internalType": "address payable",
              "name": "sender",
              "type": "address"
            },
            {
              "internalType": "address payable",
              "name": "receiver",
              "type": "address"
            },
            {
              "internalType": "bool",
              "name": "returned",
              "type": "bool"
            },
            {
              "internalType": "bool",
              "name": "released",
              "type": "bool"
            }
          ],
          "internalType": "struct Escrow.EscrowData[]",
          "name": "",
          "type": "tuple[]"
        }
      ],
      "stateMutability": "view",
      "type": "function"
    },
    {
      "inputs": [],
      "name": "groupTransfer",
      "outputs": [],
      "stateMutability": "nonpayable",
      "type": "function"
    },
    {
      "inputs": [
        {
          "internalType": "address",
          "name": "_receiver",
          "type": "address"
        }
      ],
      "name": "releaseFunds",
      "outputs": [],
      "stateMutability": "nonpayable",
      "type": "function"
    },
    {
      "inputs": [
        {
          "internalType": "address",
          "name": "_sender",
          "type": "address"
        }
      ],
      "name": "returnFunds",
      "outputs": [],
      "stateMutability": "nonpayable",
      "type": "function"
    }
  ],
  "bytecode": "0x608060405234801561001057600080fd5b5033600160006101000a81548173ffffffffffffffffffffffffffffffffffffffff021916908373ffffffffffffffffffffffffffffffffffffffff160217905550612103806100616000396000f3fe6080604052600436106100865760003560e01c80636f9fb98a116100595780636f9fb98a14610138578063739a3fed1461016357806388d695b2146101a557806397fa14e3146101ce578063fcafae11146101f757610086565b80631797a3401461008b578063192e7a7b146100b6578063477230b2146100df5780634823b32014610121575b600080fd5b34801561009757600080fd5b506100a0610213565b6040516100ad9190611844565b60405180910390f35b3480156100c257600080fd5b506100dd60048036038101906100d891906118ae565b610368565b005b3480156100eb57600080fd5b50610106600480360381019061010191906118ae565b6106be565b60405161011896959493929190611908565b60405180910390f35b34801561012d57600080fd5b50610136610754565b005b34801561014457600080fd5b5061014d610aa9565b60405161015a9190611969565b60405180910390f35b34801561016f57600080fd5b5061018a600480360381019061018591906119b0565b610b41565b60405161019c96959493929190611908565b60405180910390f35b3480156101b157600080fd5b506101cc60048036038101906101c79190611a98565b610be7565b005b3480156101da57600080fd5b506101f560048036038101906101f091906118ae565b611042565b005b610211600480360381019061020c9190611b45565b611346565b005b60606000805480602002602001604051908101604052809291908181526020016000905b8282101561035f57838290600052602060002090600402016040518060c001604052908160008201548152602001600182015481526020016002820160009054906101000a900473ffffffffffffffffffffffffffffffffffffffff1673ffffffffffffffffffffffffffffffffffffffff1673ffffffffffffffffffffffffffffffffffffffff1681526020016003820160009054906101000a900473ffffffffffffffffffffffffffffffffffffffff1673ffffffffffffffffffffffffffffffffffffffff1673ffffffffffffffffffffffffffffffffffffffff1681526020016003820160149054906101000a900460ff161515151581526020016003820160159054906101000a900460ff16151515158152505081526020019060010190610237565b50505050905090565b600160009054906101000a900473ffffffffffffffffffffffffffffffffffffffff1673ffffffffffffffffffffffffffffffffffffffff163373ffffffffffffffffffffffffffffffffffffffff16146103f8576040517f08c379a00000000000000000000000000000000000000000000000000000000081526004016103ef90611be2565b60405180910390fd5b6000600260008373ffffffffffffffffffffffffffffffffffffffff1673ffffffffffffffffffffffffffffffffffffffff16815260200190815260200160002090508060030160149054906101000a900460ff161561048d576040517f08c379a000000000000000000000000000000000000000000000000000000000815260040161048490611c4e565b60405180910390fd5b8060030160159054906101000a900460ff16156104df576040517f08c379a00000000000000000000000000000000000000000000000000000000081526004016104d690611cba565b60405180910390fd5b8060010154431015610526576040517f08c379a000000000000000000000000000000000000000000000000000000000815260040161051d90611d26565b60405180910390fd5b8173ffffffffffffffffffffffffffffffffffffffff168160030160009054906101000a900473ffffffffffffffffffffffffffffffffffffffff1673ffffffffffffffffffffffffffffffffffffffff16146105b8576040517f08c379a00000000000000000000000000000000000000000000000000000000081526004016105af90611db8565b60405180910390fd5b60018160030160146101000a81548160ff0219169083151502179055508060030160009054906101000a900473ffffffffffffffffffffffffffffffffffffffff1673ffffffffffffffffffffffffffffffffffffffff166108fc82600001549081150290604051600060405180830381858888f19350505050158015610643573d6000803e3d6000fd5b508060030160009054906101000a900473ffffffffffffffffffffffffffffffffffffffff1673ffffffffffffffffffffffffffffffffffffffff167f221c08a06b07a64803b3787861a3f276212fcccb51c2e6234077a9b8cb13047a82600001546040516106b29190611969565b60405180910390a25050565b60026020528060005260406000206000915090508060000154908060010154908060020160009054906101000a900473ffffffffffffffffffffffffffffffffffffffff16908060030160009054906101000a900473ffffffffffffffffffffffffffffffffffffffff16908060030160149054906101000a900460ff16908060030160159054906101000a900460ff16905086565b600160009054906101000a900473ffffffffffffffffffffffffffffffffffffffff1673ffffffffffffffffffffffffffffffffffffffff163373ffffffffffffffffffffffffffffffffffffffff16146107e4576040517f08c379a00000000000000000000000000000000000000000000000000000000081526004016107db90611be2565b60405180910390fd5b60005b600080549050811015610aa657600080828154811061080957610808611dd8565b5b906000526020600020906004020190508060030160009054906101000a900473ffffffffffffffffffffffffffffffffffffffff1673ffffffffffffffffffffffffffffffffffffffff168160030160009054906101000a900473ffffffffffffffffffffffffffffffffffffffff1673ffffffffffffffffffffffffffffffffffffffff16146108cf576040517f08c379a00000000000000000000000000000000000000000000000000000000081526004016108c690611db8565b60405180910390fd5b8060030160149054906101000a900460ff1615610921576040517f08c379a000000000000000000000000000000000000000000000000000000000815260040161091890611c4e565b60405180910390fd5b8060030160159054906101000a900460ff1615610973576040517f08c379a000000000000000000000000000000000000000000000000000000000815260040161096a90611c4e565b60405180910390fd5b60018160030160146101000a81548160ff02191690831515021790555060018160030160156101000a81548160ff0219169083151502179055508060030160009054906101000a900473ffffffffffffffffffffffffffffffffffffffff1673ffffffffffffffffffffffffffffffffffffffff166108fc82600001549081150290604051600060405180830381858888f19350505050158015610a1b573d6000803e3d6000fd5b508060030160009054906101000a900473ffffffffffffffffffffffffffffffffffffffff1673ffffffffffffffffffffffffffffffffffffffff167f221c08a06b07a64803b3787861a3f276212fcccb51c2e6234077a9b8cb13047a8260000154604051610a8a9190611969565b60405180910390a2508080610a9e90611e36565b9150506107e7565b50565b6000600160009054906101000a900473ffffffffffffffffffffffffffffffffffffffff1673ffffffffffffffffffffffffffffffffffffffff163373ffffffffffffffffffffffffffffffffffffffff1614610b3b576040517f08c379a0000000000000000000000000000000000000000000000000000000008152600401610b3290611be2565b60405180910390fd5b47905090565b60008181548110610b5157600080fd5b90600052602060002090600402016000915090508060000154908060010154908060020160009054906101000a900473ffffffffffffffffffffffffffffffffffffffff16908060030160009054906101000a900473ffffffffffffffffffffffffffffffffffffffff16908060030160149054906101000a900460ff16908060030160159054906101000a900460ff16905086565b600160009054906101000a900473ffffffffffffffffffffffffffffffffffffffff1673ffffffffffffffffffffffffffffffffffffffff163373ffffffffffffffffffffffffffffffffffffffff1614610c77576040517f08c379a0000000000000000000000000000000000000000000000000000000008152600401610c6e90611be2565b60405180910390fd5b818190508484905014610cbf576040517f08c379a0000000000000000000000000000000000000000000000000000000008152600401610cb690611ef0565b60405180910390fd5b60005b8484905081101561103b57600060026000878785818110610ce657610ce5611dd8565b5b9050602002016020810190610cfb9190611f10565b73ffffffffffffffffffffffffffffffffffffffff1673ffffffffffffffffffffffffffffffffffffffff16815260200190815260200160002090508060020160009054906101000a900473ffffffffffffffffffffffffffffffffffffffff1673ffffffffffffffffffffffffffffffffffffffff168160020160009054906101000a900473ffffffffffffffffffffffffffffffffffffffff1673ffffffffffffffffffffffffffffffffffffffff1614610ded576040517f08c379a0000000000000000000000000000000000000000000000000000000008152600401610de490611db8565b60405180910390fd5b8060030160149054906101000a900460ff1615610e3f576040517f08c379a0000000000000000000000000000000000000000000000000000000008152600401610e3690611c4e565b60405180910390fd5b8060030160159054906101000a900460ff1615610e91576040517f08c379a0000000000000000000000000000000000000000000000000000000008152600401610e8890611cba565b60405180910390fd5b8060010154431015610ed8576040517f08c379a0000000000000000000000000000000000000000000000000000000008152600401610ecf90611d26565b60405180910390fd5b60018160030160146101000a81548160ff02191690831515021790555060018160030160156101000a81548160ff021916908315150217905550858583818110610f2557610f24611dd8565b5b9050602002016020810190610f3a9190611f10565b73ffffffffffffffffffffffffffffffffffffffff166108fc858585818110610f6657610f65611dd8565b5b905060200201359081150290604051600060405180830381858888f19350505050158015610f98573d6000803e3d6000fd5b50858583818110610fac57610fab611dd8565b5b9050602002016020810190610fc19190611f10565b73ffffffffffffffffffffffffffffffffffffffff167fd7289cb4bb1d80932416fb1a5e3130055c190f63290d5762ff0389a3163b6e8a85858581811061100b5761100a611dd8565b5b9050602002013560405161101f9190611969565b60405180910390a250808061103390611e36565b915050610cc2565b5050505050565b600160009054906101000a900473ffffffffffffffffffffffffffffffffffffffff1673ffffffffffffffffffffffffffffffffffffffff163373ffffffffffffffffffffffffffffffffffffffff16146110d2576040517f08c379a00000000000000000000000000000000000000000000000000000000081526004016110c990611be2565b60405180910390fd5b6000600260008373ffffffffffffffffffffffffffffffffffffffff1673ffffffffffffffffffffffffffffffffffffffff16815260200190815260200160002090508060030160149054906101000a900460ff1615611167576040517f08c379a000000000000000000000000000000000000000000000000000000000815260040161115e90611c4e565b60405180910390fd5b80600101544310156111ae576040517f08c379a00000000000000000000000000000000000000000000000000000000081526004016111a590611d26565b60405180910390fd5b8173ffffffffffffffffffffffffffffffffffffffff168160020160009054906101000a900473ffffffffffffffffffffffffffffffffffffffff1673ffffffffffffffffffffffffffffffffffffffff1614611240576040517f08c379a000000000000000000000000000000000000000000000000000000000815260040161123790611db8565b60405180910390fd5b60018160030160146101000a81548160ff0219169083151502179055508060020160009054906101000a900473ffffffffffffffffffffffffffffffffffffffff1673ffffffffffffffffffffffffffffffffffffffff166108fc82600001549081150290604051600060405180830381858888f193505050501580156112cb573d6000803e3d6000fd5b508060020160009054906101000a900473ffffffffffffffffffffffffffffffffffffffff1673ffffffffffffffffffffffffffffffffffffffff167fd7289cb4bb1d80932416fb1a5e3130055c190f63290d5762ff0389a3163b6e8a826000015460405161133a9190611969565b60405180910390a25050565b438111611388576040517f08c379a000000000000000000000000000000000000000000000000000000000815260040161137f90611faf565b60405180910390fd5b600034116113cb576040517f08c379a00000000000000000000000000000000000000000000000000000000081526004016113c29061201b565b60405180910390fd5b6000600260003373ffffffffffffffffffffffffffffffffffffffff1673ffffffffffffffffffffffffffffffffffffffff16815260200190815260200160002090506000816000015414611455576040517f08c379a000000000000000000000000000000000000000000000000000000000815260040161144c906120ad565b60405180910390fd5b348160000181905550818160010181905550338160020160006101000a81548173ffffffffffffffffffffffffffffffffffffffff021916908373ffffffffffffffffffffffffffffffffffffffff16021790555060008160030160146101000a81548160ff02191690831515021790555060008160030160156101000a81548160ff02191690831515021790555060006040518060c001604052803481526020018481526020013373ffffffffffffffffffffffffffffffffffffffff1681526020018573ffffffffffffffffffffffffffffffffffffffff168152602001600015158152602001600015158152509080600181540180825580915050600190039060005260206000209060040201600090919091909150600082015181600001556020820151816001015560408201518160020160006101000a81548173ffffffffffffffffffffffffffffffffffffffff021916908373ffffffffffffffffffffffffffffffffffffffff16021790555060608201518160030160006101000a81548173ffffffffffffffffffffffffffffffffffffffff021916908373ffffffffffffffffffffffffffffffffffffffff16021790555060808201518160030160146101000a81548160ff02191690831515021790555060a08201518160030160156101000a81548160ff02191690831515021790555050503373ffffffffffffffffffffffffffffffffffffffff167f4fbba82c7ac2d3085ee7a8b5f858464eef150708109bc1fe981b0956c76d93d5346040516116989190611969565b60405180910390a2505050565b600081519050919050565b600082825260208201905092915050565b6000819050602082019050919050565b6000819050919050565b6116e4816116d1565b82525050565b600073ffffffffffffffffffffffffffffffffffffffff82169050919050565b6000611715826116ea565b9050919050565b6117258161170a565b82525050565b60008115159050919050565b6117408161172b565b82525050565b60c08201600082015161175c60008501826116db565b50602082015161176f60208501826116db565b506040820151611782604085018261171c565b506060820151611795606085018261171c565b5060808201516117a86080850182611737565b5060a08201516117bb60a0850182611737565b50505050565b60006117cd8383611746565b60c08301905092915050565b6000602082019050919050565b60006117f1826116a5565b6117fb81856116b0565b9350611806836116c1565b8060005b8381101561183757815161181e88826117c1565b9750611829836117d9565b92505060018101905061180a565b5085935050505092915050565b6000602082019050818103600083015261185e81846117e6565b905092915050565b600080fd5b600080fd5b600061187b826116ea565b9050919050565b61188b81611870565b811461189657600080fd5b50565b6000813590506118a881611882565b92915050565b6000602082840312156118c4576118c3611866565b5b60006118d284828501611899565b91505092915050565b6118e4816116d1565b82525050565b6118f38161170a565b82525050565b6119028161172b565b82525050565b600060c08201905061191d60008301896118db565b61192a60208301886118db565b61193760408301876118ea565b61194460608301866118ea565b61195160808301856118f9565b61195e60a08301846118f9565b979650505050505050565b600060208201905061197e60008301846118db565b92915050565b61198d816116d1565b811461199857600080fd5b50565b6000813590506119aa81611984565b92915050565b6000602082840312156119c6576119c5611866565b5b60006119d48482850161199b565b91505092915050565b600080fd5b600080fd5b600080fd5b60008083601f840112611a0257611a016119dd565b5b8235905067ffffffffffffffff811115611a1f57611a1e6119e2565b5b602083019150836020820283011115611a3b57611a3a6119e7565b5b9250929050565b60008083601f840112611a5857611a576119dd565b5b8235905067ffffffffffffffff811115611a7557611a746119e2565b5b602083019150836020820283011115611a9157611a906119e7565b5b9250929050565b60008060008060408587031215611ab257611ab1611866565b5b600085013567ffffffffffffffff811115611ad057611acf61186b565b5b611adc878288016119ec565b9450945050602085013567ffffffffffffffff811115611aff57611afe61186b565b5b611b0b87828801611a42565b925092505092959194509250565b611b228161170a565b8114611b2d57600080fd5b50565b600081359050611b3f81611b19565b92915050565b60008060408385031215611b5c57611b5b611866565b5b6000611b6a85828601611b30565b9250506020611b7b8582860161199b565b9150509250929050565b600082825260208201905092915050565b7f596f7520617265206e6f7420746865206f776e65720000000000000000000000600082015250565b6000611bcc601583611b85565b9150611bd782611b96565b602082019050919050565b60006020820190508181036000830152611bfb81611bbf565b9050919050565b7f46756e6473206861766520616c7265616479206265656e2072657475726e6564600082015250565b6000611c38602083611b85565b9150611c4382611c02565b602082019050919050565b60006020820190508181036000830152611c6781611c2b565b9050919050565b7f46756e6473206861766520616c7265616479206265656e2072656c6561736564600082015250565b6000611ca4602083611b85565b9150611caf82611c6e565b602082019050919050565b60006020820190508181036000830152611cd381611c97565b9050919050565b7f52656c656173652074696d6520686173206e6f74206172726976656420796574600082015250565b6000611d10602083611b85565b9150611d1b82611cda565b602082019050919050565b60006020820190508181036000830152611d3f81611d03565b9050919050565b7f596f7520646f6e27742068617665206d6f6e6579206f6e20746865206573637260008201527f6f77000000000000000000000000000000000000000000000000000000000000602082015250565b6000611da2602283611b85565b9150611dad82611d46565b604082019050919050565b60006020820190508181036000830152611dd181611d95565b9050919050565b7f4e487b7100000000000000000000000000000000000000000000000000000000600052603260045260246000fd5b7f4e487b7100000000000000000000000000000000000000000000000000000000600052601160045260246000fd5b6000611e41826116d1565b91507fffffffffffffffffffffffffffffffffffffffffffffffffffffffffffffffff8203611e7357611e72611e07565b5b600182019050919050565b7f4e756d626572206f6620726563656976657273206d757374206265206571756160008201527f6c20746f206e756d626572206f6620616d6f756e747300000000000000000000602082015250565b6000611eda603683611b85565b9150611ee582611e7e565b604082019050919050565b60006020820190508181036000830152611f0981611ecd565b9050919050565b600060208284031215611f2657611f25611866565b5b6000611f3484828501611b30565b91505092915050565b7f52656c656173652074696d65206d75737420626520696e20746865206675747560008201527f7265000000000000000000000000000000000000000000000000000000000000602082015250565b6000611f99602283611b85565b9150611fa482611f3d565b604082019050919050565b60006020820190508181036000830152611fc881611f8c565b9050919050565b7f416d6f756e74206d7573742062652067726561746572207468616e2030000000600082015250565b6000612005601d83611b85565b915061201082611fcf565b602082019050919050565b6000602082019050818103600083015261203481611ff8565b9050919050565b7f53656e64657220616c72656164792068617320616e206163746976652065736360008201527f726f770000000000000000000000000000000000000000000000000000000000602082015250565b6000612097602383611b85565b91506120a28261203b565b604082019050919050565b600060208201905081810360008301526120c68161208a565b905091905056fea264697066735822122023b9ce56d05c443edc0e2093350945eccd3631fd875b4c38ad6295832c68ceec64736f6c63430008110033",
  "linkReferences": {},
  "deployedLinkReferences": {}
}