{
  "_format": "hh-sol-artifact-1",
  "contractName": "Escrow",
  "sourceName": "contracts/Escrow.sol",
  "abi": [
    {
      "inputs": [],
      "stateMutability": "nonpayable",
      "type": "constructor"
    },
    {
      "anonymous": false,
      "inputs": [
        {
          "indexed": true,
          "internalType": "address",
          "name": "sender",
          "type": "address"
        },
        {
          "indexed": false,
          "internalType": "uint256",
          "name": "amount",
          "type": "uint256"
        }
      ],
      "name": "FundsEscrowed",
      "type": "event"
    },
    {
      "anonymous": false,
      "inputs": [
        {
          "indexed": true,
          "internalType": "address",
          "name": "sender",
          "type": "address"
        },
        {
          "indexed": false,
          "internalType": "uint256",
          "name": "amount",
          "type": "uint256"
        }
      ],
      "name": "FundsReturned",
      "type": "event"
    },
    {
      "inputs": [
        {
          "internalType": "address payable[]",
          "name": "_receivers",
          "type": "address[]"
        },
        {
          "internalType": "uint256[]",
          "name": "_amounts",
          "type": "uint256[]"
        }
      ],
      "name": "batchTransfer",
      "outputs": [],
      "stateMutability": "nonpayable",
      "type": "function"
    },
    {
      "inputs": [],
      "name": "escrowFunds",
      "outputs": [],
      "stateMutability": "payable",
      "type": "function"
    },
    {
      "inputs": [
        {
          "internalType": "uint256",
          "name": "",
          "type": "uint256"
        }
      ],
      "name": "escrowList",
      "outputs": [
        {
          "internalType": "uint256",
          "name": "amount",
          "type": "uint256"
        },
        {
          "internalType": "address payable",
          "name": "sender",
          "type": "address"
        },
        {
          "internalType": "bool",
          "name": "returned",
          "type": "bool"
        }
      ],
      "stateMutability": "view",
      "type": "function"
    },
    {
      "inputs": [
        {
          "internalType": "address",
          "name": "",
          "type": "address"
        }
      ],
      "name": "escrows",
      "outputs": [
        {
          "internalType": "uint256",
          "name": "amount",
          "type": "uint256"
        },
        {
          "internalType": "address payable",
          "name": "sender",
          "type": "address"
        },
        {
          "internalType": "bool",
          "name": "returned",
          "type": "bool"
        }
      ],
      "stateMutability": "view",
      "type": "function"
    },
    {
      "inputs": [],
      "name": "getContractBalance",
      "outputs": [
        {
          "internalType": "uint256",
          "name": "",
          "type": "uint256"
        }
      ],
      "stateMutability": "view",
      "type": "function"
    },
    {
      "inputs": [],
      "name": "getEcrowList",
      "outputs": [
        {
          "components": [
            {
              "internalType": "uint256",
              "name": "amount",
              "type": "uint256"
            },
            {
              "internalType": "address payable",
              "name": "sender",
              "type": "address"
            },
            {
              "internalType": "bool",
              "name": "returned",
              "type": "bool"
            }
          ],
          "internalType": "struct Escrow.EscrowData[]",
          "name": "",
          "type": "tuple[]"
        }
      ],
      "stateMutability": "view",
      "type": "function"
    },
    {
      "inputs": [],
      "name": "groupRefund",
      "outputs": [],
      "stateMutability": "nonpayable",
      "type": "function"
    },
    {
      "inputs": [
        {
          "internalType": "address",
          "name": "_sender",
          "type": "address"
        }
      ],
      "name": "returnFunds",
      "outputs": [],
      "stateMutability": "nonpayable",
      "type": "function"
    }
  ],
  "bytecode": "0x608060405234801561001057600080fd5b5033600160006101000a81548173ffffffffffffffffffffffffffffffffffffffff021916908373ffffffffffffffffffffffffffffffffffffffff160217905550611657806100616000396000f3fe60806040526004361061007b5760003560e01c806388d695b21161004e57806388d695b21461015457806397fa14e31461017d578063ce5aeb0b146101a6578063ed848a92146101bd5761007b565b80631797a34014610080578063477230b2146100ab5780636f9fb98a146100ea578063739a3fed14610115575b600080fd5b34801561008c57600080fd5b506100956101c7565b6040516100a29190610f92565b60405180910390f35b3480156100b757600080fd5b506100d260048036038101906100cd9190610ffc565b6102a1565b6040516100e193929190611056565b60405180910390f35b3480156100f657600080fd5b506100ff6102f8565b60405161010c919061108d565b60405180910390f35b34801561012157600080fd5b5061013c600480360381019061013791906110d4565b610390565b60405161014b93929190611056565b60405180910390f35b34801561016057600080fd5b5061017b600480360381019061017691906111bc565b6103f7565b005b34801561018957600080fd5b506101a4600480360381019061019f9190610ffc565b6106e6565b005b3480156101b257600080fd5b506101bb6109a3565b005b6101c5610bd3565b005b60606000805480602002602001604051908101604052809291908181526020016000905b828210156102985783829060005260206000209060020201604051806060016040529081600082015481526020016001820160009054906101000a900473ffffffffffffffffffffffffffffffffffffffff1673ffffffffffffffffffffffffffffffffffffffff1673ffffffffffffffffffffffffffffffffffffffff1681526020016001820160149054906101000a900460ff161515151581525050815260200190600101906101eb565b50505050905090565b60026020528060005260406000206000915090508060000154908060010160009054906101000a900473ffffffffffffffffffffffffffffffffffffffff16908060010160149054906101000a900460ff16905083565b6000600160009054906101000a900473ffffffffffffffffffffffffffffffffffffffff1673ffffffffffffffffffffffffffffffffffffffff163373ffffffffffffffffffffffffffffffffffffffff161461038a576040517f08c379a00000000000000000000000000000000000000000000000000000000081526004016103819061129a565b60405180910390fd5b47905090565b600081815481106103a057600080fd5b90600052602060002090600202016000915090508060000154908060010160009054906101000a900473ffffffffffffffffffffffffffffffffffffffff16908060010160149054906101000a900460ff16905083565b600160009054906101000a900473ffffffffffffffffffffffffffffffffffffffff1673ffffffffffffffffffffffffffffffffffffffff163373ffffffffffffffffffffffffffffffffffffffff1614610487576040517f08c379a000000000000000000000000000000000000000000000000000000000815260040161047e9061129a565b60405180910390fd5b8181905084849050146104cf576040517f08c379a00000000000000000000000000000000000000000000000000000000081526004016104c69061132c565b60405180910390fd5b60005b848490508110156106df576000600260008787858181106104f6576104f561134c565b5b905060200201602081019061050b91906113a7565b73ffffffffffffffffffffffffffffffffffffffff1673ffffffffffffffffffffffffffffffffffffffff16815260200190815260200160002090508060010160149054906101000a900460ff1615610599576040517f08c379a000000000000000000000000000000000000000000000000000000000815260040161059090611420565b60405180910390fd5b60018160010160146101000a81548160ff0219169083151502179055508585838181106105c9576105c861134c565b5b90506020020160208101906105de91906113a7565b73ffffffffffffffffffffffffffffffffffffffff166108fc85858581811061060a5761060961134c565b5b905060200201359081150290604051600060405180830381858888f1935050505015801561063c573d6000803e3d6000fd5b508585838181106106505761064f61134c565b5b905060200201602081019061066591906113a7565b73ffffffffffffffffffffffffffffffffffffffff167fd7289cb4bb1d80932416fb1a5e3130055c190f63290d5762ff0389a3163b6e8a8585858181106106af576106ae61134c565b5b905060200201356040516106c3919061108d565b60405180910390a25080806106d79061146f565b9150506104d2565b5050505050565b600160009054906101000a900473ffffffffffffffffffffffffffffffffffffffff1673ffffffffffffffffffffffffffffffffffffffff163373ffffffffffffffffffffffffffffffffffffffff1614610776576040517f08c379a000000000000000000000000000000000000000000000000000000000815260040161076d9061129a565b60405180910390fd5b6000600260008373ffffffffffffffffffffffffffffffffffffffff1673ffffffffffffffffffffffffffffffffffffffff16815260200190815260200160002090508060010160149054906101000a900460ff161561080b576040517f08c379a000000000000000000000000000000000000000000000000000000000815260040161080290611420565b60405180910390fd5b8173ffffffffffffffffffffffffffffffffffffffff168160010160009054906101000a900473ffffffffffffffffffffffffffffffffffffffff1673ffffffffffffffffffffffffffffffffffffffff161461089d576040517f08c379a000000000000000000000000000000000000000000000000000000000815260040161089490611503565b60405180910390fd5b60018160010160146101000a81548160ff0219169083151502179055508060010160009054906101000a900473ffffffffffffffffffffffffffffffffffffffff1673ffffffffffffffffffffffffffffffffffffffff166108fc82600001549081150290604051600060405180830381858888f19350505050158015610928573d6000803e3d6000fd5b508060010160009054906101000a900473ffffffffffffffffffffffffffffffffffffffff1673ffffffffffffffffffffffffffffffffffffffff167fd7289cb4bb1d80932416fb1a5e3130055c190f63290d5762ff0389a3163b6e8a8260000154604051610997919061108d565b60405180910390a25050565b600160009054906101000a900473ffffffffffffffffffffffffffffffffffffffff1673ffffffffffffffffffffffffffffffffffffffff163373ffffffffffffffffffffffffffffffffffffffff1614610a33576040517f08c379a0000000000000000000000000000000000000000000000000000000008152600401610a2a9061129a565b60405180910390fd5b60005b600080549050811015610bd0576000808281548110610a5857610a5761134c565b5b906000526020600020906002020190508060010160149054906101000a900460ff1615610aba576040517f08c379a0000000000000000000000000000000000000000000000000000000008152600401610ab190611420565b60405180910390fd5b60018160010160146101000a81548160ff0219169083151502179055508060010160009054906101000a900473ffffffffffffffffffffffffffffffffffffffff1673ffffffffffffffffffffffffffffffffffffffff166108fc82600001549081150290604051600060405180830381858888f19350505050158015610b45573d6000803e3d6000fd5b508060010160009054906101000a900473ffffffffffffffffffffffffffffffffffffffff1673ffffffffffffffffffffffffffffffffffffffff167fd7289cb4bb1d80932416fb1a5e3130055c190f63290d5762ff0389a3163b6e8a8260000154604051610bb4919061108d565b60405180910390a2508080610bc89061146f565b915050610a36565b50565b60003411610c16576040517f08c379a0000000000000000000000000000000000000000000000000000000008152600401610c0d9061156f565b60405180910390fd5b6000600260003373ffffffffffffffffffffffffffffffffffffffff1673ffffffffffffffffffffffffffffffffffffffff16815260200190815260200160002090506000816000015414610ca0576040517f08c379a0000000000000000000000000000000000000000000000000000000008152600401610c9790611601565b60405180910390fd5b348160000181905550338160010160006101000a81548173ffffffffffffffffffffffffffffffffffffffff021916908373ffffffffffffffffffffffffffffffffffffffff16021790555060008160010160146101000a81548160ff021916908315150217905550600060405180606001604052803481526020013373ffffffffffffffffffffffffffffffffffffffff1681526020016000151581525090806001815401808255809150506001900390600052602060002090600202016000909190919091506000820151816000015560208201518160010160006101000a81548173ffffffffffffffffffffffffffffffffffffffff021916908373ffffffffffffffffffffffffffffffffffffffff16021790555060408201518160010160146101000a81548160ff02191690831515021790555050503373ffffffffffffffffffffffffffffffffffffffff167f4fbba82c7ac2d3085ee7a8b5f858464eef150708109bc1fe981b0956c76d93d534604051610e21919061108d565b60405180910390a250565b600081519050919050565b600082825260208201905092915050565b6000819050602082019050919050565b6000819050919050565b610e6b81610e58565b82525050565b600073ffffffffffffffffffffffffffffffffffffffff82169050919050565b6000610e9c82610e71565b9050919050565b610eac81610e91565b82525050565b60008115159050919050565b610ec781610eb2565b82525050565b606082016000820151610ee36000850182610e62565b506020820151610ef66020850182610ea3565b506040820151610f096040850182610ebe565b50505050565b6000610f1b8383610ecd565b60608301905092915050565b6000602082019050919050565b6000610f3f82610e2c565b610f498185610e37565b9350610f5483610e48565b8060005b83811015610f85578151610f6c8882610f0f565b9750610f7783610f27565b925050600181019050610f58565b5085935050505092915050565b60006020820190508181036000830152610fac8184610f34565b905092915050565b600080fd5b600080fd5b6000610fc982610e71565b9050919050565b610fd981610fbe565b8114610fe457600080fd5b50565b600081359050610ff681610fd0565b92915050565b60006020828403121561101257611011610fb4565b5b600061102084828501610fe7565b91505092915050565b61103281610e58565b82525050565b61104181610e91565b82525050565b61105081610eb2565b82525050565b600060608201905061106b6000830186611029565b6110786020830185611038565b6110856040830184611047565b949350505050565b60006020820190506110a26000830184611029565b92915050565b6110b181610e58565b81146110bc57600080fd5b50565b6000813590506110ce816110a8565b92915050565b6000602082840312156110ea576110e9610fb4565b5b60006110f8848285016110bf565b91505092915050565b600080fd5b600080fd5b600080fd5b60008083601f84011261112657611125611101565b5b8235905067ffffffffffffffff81111561114357611142611106565b5b60208301915083602082028301111561115f5761115e61110b565b5b9250929050565b60008083601f84011261117c5761117b611101565b5b8235905067ffffffffffffffff81111561119957611198611106565b5b6020830191508360208202830111156111b5576111b461110b565b5b9250929050565b600080600080604085870312156111d6576111d5610fb4565b5b600085013567ffffffffffffffff8111156111f4576111f3610fb9565b5b61120087828801611110565b9450945050602085013567ffffffffffffffff81111561122357611222610fb9565b5b61122f87828801611166565b925092505092959194509250565b600082825260208201905092915050565b7f596f7520617265206e6f7420746865206f776e65720000000000000000000000600082015250565b600061128460158361123d565b915061128f8261124e565b602082019050919050565b600060208201905081810360008301526112b381611277565b9050919050565b7f4e756d626572206f6620726563656976657273206d757374206265206571756160008201527f6c20746f206e756d626572206f6620616d6f756e747300000000000000000000602082015250565b600061131660368361123d565b9150611321826112ba565b604082019050919050565b6000602082019050818103600083015261134581611309565b9050919050565b7f4e487b7100000000000000000000000000000000000000000000000000000000600052603260045260246000fd5b61138481610e91565b811461138f57600080fd5b50565b6000813590506113a18161137b565b92915050565b6000602082840312156113bd576113bc610fb4565b5b60006113cb84828501611392565b91505092915050565b7f46756e6473206861766520616c7265616479206265656e2072657475726e6564600082015250565b600061140a60208361123d565b9150611415826113d4565b602082019050919050565b60006020820190508181036000830152611439816113fd565b9050919050565b7f4e487b7100000000000000000000000000000000000000000000000000000000600052601160045260246000fd5b600061147a82610e58565b91507fffffffffffffffffffffffffffffffffffffffffffffffffffffffffffffffff82036114ac576114ab611440565b5b600182019050919050565b7f596f7520646f6e2774206d6f6e6579206f6e2074686520657363726f77000000600082015250565b60006114ed601d8361123d565b91506114f8826114b7565b602082019050919050565b6000602082019050818103600083015261151c816114e0565b9050919050565b7f416d6f756e74206d7573742062652067726561746572207468616e2030000000600082015250565b6000611559601d8361123d565b915061156482611523565b602082019050919050565b600060208201905081810360008301526115888161154c565b9050919050565b7f53656e64657220616c72656164792068617320616e206163746976652065736360008201527f726f770000000000000000000000000000000000000000000000000000000000602082015250565b60006115eb60238361123d565b91506115f68261158f565b604082019050919050565b6000602082019050818103600083015261161a816115de565b905091905056fea264697066735822122006effca62839c958274fc895daf47d856506a7870cbf722fe4e3b7396dac9e0464736f6c63430008110033",
  "linkReferences": {},
  "deployedLinkReferences": {}
}